{
  "contractName": "CStore",
  "abi": [
    {
      "constant": true,
      "inputs": [
        {
          "internalType": "uint256",
          "name": "",
          "type": "uint256"
        }
      ],
      "name": "products",
      "outputs": [
        {
          "internalType": "uint256",
          "name": "id",
          "type": "uint256"
        },
        {
          "internalType": "string",
          "name": "name",
          "type": "string"
        },
        {
          "internalType": "address",
          "name": "supplier",
          "type": "address"
        },
        {
          "internalType": "address",
          "name": "store",
          "type": "address"
        },
        {
          "internalType": "uint256",
          "name": "price",
          "type": "uint256"
        }
      ],
      "payable": false,
      "stateMutability": "view",
      "type": "function"
    },
    {
      "constant": true,
      "inputs": [
        {
          "internalType": "uint256",
          "name": "",
          "type": "uint256"
        }
      ],
      "name": "stores",
      "outputs": [
        {
          "internalType": "uint256",
          "name": "id",
          "type": "uint256"
        }
      ],
      "payable": false,
      "stateMutability": "view",
      "type": "function"
    },
    {
      "constant": true,
      "inputs": [
        {
          "internalType": "address",
          "name": "",
          "type": "address"
        }
      ],
      "name": "suppliers",
      "outputs": [
        {
          "internalType": "address",
          "name": "addr",
          "type": "address"
        },
        {
          "internalType": "uint256",
          "name": "rating",
          "type": "uint256"
        }
      ],
      "payable": false,
      "stateMutability": "view",
      "type": "function"
    },
    {
      "constant": true,
      "inputs": [
        {
          "internalType": "address",
          "name": "",
          "type": "address"
        }
      ],
      "name": "users",
      "outputs": [
        {
          "internalType": "enum CStore.Roles",
          "name": "",
          "type": "uint8"
        }
      ],
      "payable": false,
      "stateMutability": "view",
      "type": "function"
    },
    {
      "constant": false,
      "inputs": [
        {
          "internalType": "uint256",
          "name": "_id",
          "type": "uint256"
        },
        {
          "internalType": "string",
          "name": "_name",
          "type": "string"
        },
        {
          "internalType": "uint256",
          "name": "_price",
          "type": "uint256"
        }
      ],
      "name": "createProduct",
      "outputs": [],
      "payable": false,
      "stateMutability": "nonpayable",
      "type": "function"
    },
    {
      "constant": false,
      "inputs": [
        {
          "internalType": "uint256",
          "name": "_productId",
          "type": "uint256"
        },
        {
          "internalType": "address",
          "name": "_store",
          "type": "address"
        }
      ],
      "name": "shipProduct",
      "outputs": [],
      "payable": false,
      "stateMutability": "nonpayable",
      "type": "function"
    },
    {
      "constant": false,
      "inputs": [
        {
          "internalType": "uint256",
          "name": "_productId",
          "type": "uint256"
        },
        {
          "internalType": "address",
          "name": "_buyer",
          "type": "address"
        }
      ],
      "name": "sellProduct",
      "outputs": [],
      "payable": false,
      "stateMutability": "nonpayable",
      "type": "function"
    },
    {
      "constant": false,
      "inputs": [
        {
          "internalType": "uint256",
          "name": "_productId",
          "type": "uint256"
        }
      ],
      "name": "returnProduct",
      "outputs": [],
      "payable": false,
      "stateMutability": "nonpayable",
      "type": "function"
    },
    {
      "constant": false,
      "inputs": [
        {
          "internalType": "address",
          "name": "_addr",
          "type": "address"
        },
        {
          "internalType": "uint256",
          "name": "_rating",
          "type": "uint256"
        }
      ],
      "name": "addSupplier",
      "outputs": [],
      "payable": false,
      "stateMutability": "nonpayable",
      "type": "function"
    },
    {
      "constant": false,
      "inputs": [
        {
          "internalType": "address",
          "name": "_addr",
          "type": "address"
        },
        {
          "internalType": "enum CStore.Roles",
          "name": "_role",
          "type": "uint8"
        }
      ],
      "name": "updateRole",
      "outputs": [],
      "payable": false,
      "stateMutability": "nonpayable",
      "type": "function"
    }
  ],
  "bytecode": "0x608060405234801561001057600080fd5b5061114b806100206000396000f3fe608060405234801561001057600080fd5b506004361061009e5760003560e01c80634be35ccb116100665780634be35ccb146102465780637acc0b20146103155780638e96d94e14610430578063a87430ba14610481578063e8a59cd8146104e75761009e565b80630b569140146100a35780630e8336dd146100f1578063131e407d1461013f57806316dc15fe1461016d57806320ea6189146101f8575b600080fd5b6100ef600480360360408110156100b957600080fd5b8101908080359060200190929190803573ffffffffffffffffffffffffffffffffffffffff169060200190929190505050610529565b005b61013d6004803603604081101561010757600080fd5b8101908080359060200190929190803573ffffffffffffffffffffffffffffffffffffffff16906020019092919050505061063c565b005b61016b6004803603602081101561015557600080fd5b810190808035906020019092919050505061074f565b005b6101af6004803603602081101561018357600080fd5b81019080803573ffffffffffffffffffffffffffffffffffffffff169060200190929190505050610897565b604051808373ffffffffffffffffffffffffffffffffffffffff1673ffffffffffffffffffffffffffffffffffffffff1681526020018281526020019250505060405180910390f35b6102446004803603604081101561020e57600080fd5b81019080803573ffffffffffffffffffffffffffffffffffffffff169060200190929190803590602001909291905050506108db565b005b6103136004803603606081101561025c57600080fd5b81019080803590602001909291908035906020019064010000000081111561028357600080fd5b82018360208201111561029557600080fd5b803590602001918460018302840111640100000000831117156102b757600080fd5b91908080601f016020809104026020016040519081016040528093929190818152602001838380828437600081840152601f19601f820116905080830192505050505050509192919290803590602001909291905050506109fc565b005b6103416004803603602081101561032b57600080fd5b8101908080359060200190929190505050610d32565b60405180868152602001806020018573ffffffffffffffffffffffffffffffffffffffff1673ffffffffffffffffffffffffffffffffffffffff1681526020018473ffffffffffffffffffffffffffffffffffffffff1673ffffffffffffffffffffffffffffffffffffffff168152602001838152602001828103825286818151815260200191508051906020019080838360005b838110156103f15780820151818401526020810190506103d6565b50505050905090810190601f16801561041e5780820380516001836020036101000a031916815260200191505b50965050505050505060405180910390f35b61047f6004803603604081101561044657600080fd5b81019080803573ffffffffffffffffffffffffffffffffffffffff169060200190929190803560ff169060200190929190505050610e40565b005b6104c36004803603602081101561049757600080fd5b81019080803573ffffffffffffffffffffffffffffffffffffffff169060200190929190505050610ea4565b604051808260048111156104d357fe5b60ff16815260200191505060405180910390f35b610513600480360360208110156104fd57600080fd5b8101908080359060200190929190505050610ec4565b6040518082815260200191505060405180910390f35b3373ffffffffffffffffffffffffffffffffffffffff166002600084815260200190815260200160002060030160009054906101000a900473ffffffffffffffffffffffffffffffffffffffff1673ffffffffffffffffffffffffffffffffffffffff16146105e3576040517f08c379a000000000000000000000000000000000000000000000000000000000815260040180806020018281038252603f81526020018061109c603f913960400191505060405180910390fd5b806002600084815260200190815260200160002060030160006101000a81548173ffffffffffffffffffffffffffffffffffffffff021916908373ffffffffffffffffffffffffffffffffffffffff1602179055505050565b3373ffffffffffffffffffffffffffffffffffffffff166002600084815260200190815260200160002060020160009054906101000a900473ffffffffffffffffffffffffffffffffffffffff1673ffffffffffffffffffffffffffffffffffffffff16146106f6576040517f08c379a000000000000000000000000000000000000000000000000000000000815260040180806020018281038252603481526020018061103b6034913960400191505060405180910390fd5b806002600084815260200190815260200160002060030160006101000a81548173ffffffffffffffffffffffffffffffffffffffff021916908373ffffffffffffffffffffffffffffffffffffffff1602179055505050565b3373ffffffffffffffffffffffffffffffffffffffff166002600083815260200190815260200160002060030160009054906101000a900473ffffffffffffffffffffffffffffffffffffffff1673ffffffffffffffffffffffffffffffffffffffff1614610809576040517f08c379a000000000000000000000000000000000000000000000000000000000815260040180806020018281038252603f81526020018061109c603f913960400191505060405180910390fd5b6002600082815260200190815260200160002060020160009054906101000a900473ffffffffffffffffffffffffffffffffffffffff166002600083815260200190815260200160002060030160006101000a81548173ffffffffffffffffffffffffffffffffffffffff021916908373ffffffffffffffffffffffffffffffffffffffff16021790555050565b60036020528060005260406000206000915090508060000160009054906101000a900473ffffffffffffffffffffffffffffffffffffffff16908060010154905082565b6108e3610ee2565b60405180606001604052808473ffffffffffffffffffffffffffffffffffffffff16815260200183815260200160006040519080825280602002602001820160405280156109405781602001602082028038833980820191505090505b50815250905080600360008573ffffffffffffffffffffffffffffffffffffffff1673ffffffffffffffffffffffffffffffffffffffff16815260200190815260200160002060008201518160000160006101000a81548173ffffffffffffffffffffffffffffffffffffffff021916908373ffffffffffffffffffffffffffffffffffffffff1602179055506020820151816001015560408201518160020190805190602001906109f3929190610f19565b50905050505050565b6000825111610a56576040517f08c379a000000000000000000000000000000000000000000000000000000000815260040180806020018281038252602d81526020018061106f602d913960400191505060405180910390fd5b60008111610aaf576040517f08c379a000000000000000000000000000000000000000000000000000000000815260040180806020018281038252602f81526020018061100c602f913960400191505060405180910390fd5b8260026000858152602001908152602001600020600001541415610b1e576040517f08c379a000000000000000000000000000000000000000000000000000000000815260040180806020018281038252603c8152602001806110db603c913960400191505060405180910390fd5b600360003373ffffffffffffffffffffffffffffffffffffffff1673ffffffffffffffffffffffffffffffffffffffff16815260200190815260200160002060000160009054906101000a900473ffffffffffffffffffffffffffffffffffffffff1673ffffffffffffffffffffffffffffffffffffffff163373ffffffffffffffffffffffffffffffffffffffff1614610c04576040517f08c379a000000000000000000000000000000000000000000000000000000000815260040180806020018281038252603481526020018061103b6034913960400191505060405180910390fd5b6040518060a001604052808481526020018381526020013373ffffffffffffffffffffffffffffffffffffffff168152602001600073ffffffffffffffffffffffffffffffffffffffff1681526020018281525060026000858152602001908152602001600020600082015181600001556020820151816001019080519060200190610c91929190610f66565b5060408201518160020160006101000a81548173ffffffffffffffffffffffffffffffffffffffff021916908373ffffffffffffffffffffffffffffffffffffffff16021790555060608201518160030160006101000a81548173ffffffffffffffffffffffffffffffffffffffff021916908373ffffffffffffffffffffffffffffffffffffffff16021790555060808201518160040155905050505050565b6002602052806000526040600020600091509050806000015490806001018054600181600116156101000203166002900480601f016020809104026020016040519081016040528092919081815260200182805460018160011615610100020316600290048015610de45780601f10610db957610100808354040283529160200191610de4565b820191906000526020600020905b815481529060010190602001808311610dc757829003601f168201915b5050505050908060020160009054906101000a900473ffffffffffffffffffffffffffffffffffffffff16908060030160009054906101000a900473ffffffffffffffffffffffffffffffffffffffff16908060040154905085565b80600160008473ffffffffffffffffffffffffffffffffffffffff1673ffffffffffffffffffffffffffffffffffffffff16815260200190815260200160002060006101000a81548160ff02191690836004811115610e9b57fe5b02179055505050565b60016020528060005260406000206000915054906101000a900460ff1681565b60006020528060005260406000206000915090508060000154905081565b6040518060600160405280600073ffffffffffffffffffffffffffffffffffffffff16815260200160008152602001606081525090565b828054828255906000526020600020908101928215610f55579160200282015b82811115610f54578251825591602001919060010190610f39565b5b509050610f629190610fe6565b5090565b828054600181600116156101000203166002900490600052602060002090601f016020900481019282601f10610fa757805160ff1916838001178555610fd5565b82800160010185558215610fd5579182015b82811115610fd4578251825591602001919060010190610fb9565b5b509050610fe29190610fe6565b5090565b61100891905b80821115611004576000816000905550600101610fec565b5090565b9056fed0a6d0b5d0bdd0b020d0b2d0b2d0b5d0b4d0b5d0bdd0b020d0bdd0b5d0bad0bed180d180d0b5d0bad182d0bdd0be21d092d18b20d0bdd0b520d18fd0b2d0bbd18fd0b5d182d0b5d181d18c20d0bfd0bed181d182d0b0d0b2d189d0b8d0bad0bed0bc21d098d0bcd18f20d0b2d0b2d0b5d0b4d0b5d0bdd0be20d0bdd0b5d0bad0bed180d180d0b5d0bad182d0bdd0be21d092d18b20d0bdd0b520d18fd0b2d0bbd18fd0b5d182d0b5d181d18c20d0b2d0bbd0b0d0b4d0b5d0bbd18cd186d0b5d0bc20d182d0bed0b2d0b0d180d0b021d09fd180d0bed0b4d183d0bad18220d18120d182d0b0d0bad0b8d0bc20494420d183d0b6d0b520d181d183d189d0b5d181d182d0b2d183d0b5d18221a265627a7a72315820c8af530271e28931c03c584395078a0348cc16c50f725f2c1d684ec208c2769964736f6c63430005100032",
  "source": "// SPDX-License-Identifier: MIT\r\npragma solidity >=0.4.22 <0.9.0;\r\n\r\ncontract CStore {\r\n    enum Roles {\r\n        Admin,\r\n        Supplier,\r\n        Buyer,\r\n        Seller,\r\n        Store\r\n    }\r\n\r\n    struct Product {\r\n        uint id;\r\n        string name;\r\n        address supplier;\r\n        address store;\r\n        uint price;\r\n    }\r\n\r\n    struct Supplier {\r\n        address addr;\r\n        uint rating;\r\n        uint[] productIds;\r\n    }\r\n\r\n    struct Store {\r\n        uint id;\r\n        mapping (uint => uint) numberOfProducts;\r\n    }\r\n\r\n    mapping (uint => Store) public stores;\r\n    mapping (address => Roles) public users;\r\n    mapping (uint => Product) public products;\r\n    mapping (address => Supplier) public suppliers;\r\n\r\n    function createProduct(uint _id, string memory _name, uint _price) public {\r\n        require(bytes(_name).length > 0, \"Имя введено некорректно!\");\r\n        require(_price > 0, \"Цена введена некорректно!\");\r\n        require(products[_id].id != _id, \"Продукт с таким ID уже существует!\");\r\n        require(msg.sender == suppliers[msg.sender].addr, \"Вы не являетесь поставщиком!\");\r\n        products[_id] = Product(_id, _name, msg.sender, address(0), _price);\r\n    }\r\n\r\n    // function createStore(uint _id) public {\r\n    //     require(stores[_id].id != _id, \"Магазин с таким ID уже существует!\");\r\n    //     stores[_id] = Store(_id, );\r\n    // }\r\n\r\n    function shipProduct(uint _productId, address _store) public {\r\n        require(products[_productId].supplier == msg.sender, \"Вы не являетесь поставщиком!\");\r\n        products[_productId].store = _store;\r\n    }\r\n\r\n    function sellProduct(uint _productId, address _buyer) public {\r\n        // require(products[_productId].count - numberOfProducts > 0, \"Товара не достаточно!\");\r\n        require(products[_productId].store == msg.sender, \"Вы не являетесь владельцем товара!\");\r\n        products[_productId].store = _buyer;\r\n        // products[_productId].count = products[_productId].count - numberOfProducts;\r\n    }\r\n\r\n    function returnProduct(uint _productId) public {\r\n        require(products[_productId].store == msg.sender, \"Вы не являетесь владельцем товара!\");\r\n        products[_productId].store = products[_productId].supplier;\r\n        // products[_productId].count = products[_productId].count + ;\r\n    }\r\n\r\n    function addSupplier(address _addr, uint _rating) public {\r\n        Supplier memory newSupplier = Supplier(_addr, _rating, new uint[](0));\r\n        suppliers[_addr] = newSupplier;\r\n    }\r\n\r\n    function updateRole(address _addr, Roles _role) public {\r\n        users[_addr] = _role;\r\n    }\r\n}",
  "sourcePath": "D:\\others\\БЛОК\\store\\contracts\\CStore.sol",
  "compiler": {
    "name": "solc",
    "version": "0.5.16+commit.9c3226ce.Emscripten.clang"
  },
  "schemaVersion": "3.4.16",
  "updatedAt": "2024-02-26T10:39:13.992Z",
  "networkType": "ethereum",
  "devdoc": {
    "methods": {}
  },
  "userdoc": {
    "methods": {}
  }
}