{
  "contractName": "CStore",
  "abi": [
    {
      "constant": true,
      "inputs": [
        {
          "internalType": "uint256",
          "name": "",
          "type": "uint256"
        }
      ],
      "name": "products",
      "outputs": [
        {
          "internalType": "uint256",
          "name": "id",
          "type": "uint256"
        },
        {
          "internalType": "string",
          "name": "name",
          "type": "string"
        },
        {
          "internalType": "address",
          "name": "supplier",
          "type": "address"
        },
        {
          "internalType": "uint256",
          "name": "price",
          "type": "uint256"
        },
        {
          "internalType": "uint256",
          "name": "numberOfProducts",
          "type": "uint256"
        }
      ],
      "payable": false,
      "stateMutability": "view",
      "type": "function"
    },
    {
      "constant": true,
      "inputs": [
        {
          "internalType": "uint256",
          "name": "",
          "type": "uint256"
        }
      ],
      "name": "purchases",
      "outputs": [
        {
          "internalType": "address",
          "name": "buyer",
          "type": "address"
        },
        {
          "internalType": "uint256",
          "name": "productId",
          "type": "uint256"
        },
        {
          "internalType": "uint256",
          "name": "numberOfProducts",
          "type": "uint256"
        }
      ],
      "payable": false,
      "stateMutability": "view",
      "type": "function"
    },
    {
      "constant": true,
      "inputs": [
        {
          "internalType": "address",
          "name": "",
          "type": "address"
        }
      ],
      "name": "suppliers",
      "outputs": [
        {
          "internalType": "address",
          "name": "addr",
          "type": "address"
        },
        {
          "internalType": "int256",
          "name": "rating",
          "type": "int256"
        }
      ],
      "payable": false,
      "stateMutability": "view",
      "type": "function"
    },
    {
      "constant": true,
      "inputs": [
        {
          "internalType": "address",
          "name": "",
          "type": "address"
        }
      ],
      "name": "users",
      "outputs": [
        {
          "internalType": "enum CStore.Roles",
          "name": "",
          "type": "uint8"
        }
      ],
      "payable": false,
      "stateMutability": "view",
      "type": "function"
    },
    {
      "constant": false,
      "inputs": [
        {
          "internalType": "uint256",
          "name": "_id",
          "type": "uint256"
        },
        {
          "internalType": "string",
          "name": "_name",
          "type": "string"
        },
        {
          "internalType": "uint256",
          "name": "_price",
          "type": "uint256"
        }
      ],
      "name": "createProduct",
      "outputs": [],
      "payable": false,
      "stateMutability": "nonpayable",
      "type": "function"
    },
    {
      "constant": false,
      "inputs": [
        {
          "internalType": "address",
          "name": "_addr",
          "type": "address"
        },
        {
          "internalType": "int256",
          "name": "_rating",
          "type": "int256"
        }
      ],
      "name": "addSupplier",
      "outputs": [],
      "payable": false,
      "stateMutability": "nonpayable",
      "type": "function"
    },
    {
      "constant": false,
      "inputs": [
        {
          "internalType": "uint256",
          "name": "_productId",
          "type": "uint256"
        },
        {
          "internalType": "uint256",
          "name": "_numberOfProducts",
          "type": "uint256"
        }
      ],
      "name": "shipProduct",
      "outputs": [],
      "payable": false,
      "stateMutability": "nonpayable",
      "type": "function"
    },
    {
      "constant": false,
      "inputs": [
        {
          "internalType": "uint256",
          "name": "_purchaseId",
          "type": "uint256"
        },
        {
          "internalType": "address",
          "name": "_buyer",
          "type": "address"
        },
        {
          "internalType": "uint256",
          "name": "_productId",
          "type": "uint256"
        },
        {
          "internalType": "uint256",
          "name": "_numberOfProducts",
          "type": "uint256"
        }
      ],
      "name": "sellProduct",
      "outputs": [],
      "payable": false,
      "stateMutability": "nonpayable",
      "type": "function"
    },
    {
      "constant": false,
      "inputs": [
        {
          "internalType": "uint256",
          "name": "_purchaseId",
          "type": "uint256"
        }
      ],
      "name": "returnProduct",
      "outputs": [],
      "payable": false,
      "stateMutability": "nonpayable",
      "type": "function"
    },
    {
      "constant": false,
      "inputs": [
        {
          "internalType": "address",
          "name": "_addr",
          "type": "address"
        },
        {
          "internalType": "enum CStore.Roles",
          "name": "_role",
          "type": "uint8"
        }
      ],
      "name": "updateRole",
      "outputs": [],
      "payable": false,
      "stateMutability": "nonpayable",
      "type": "function"
    }
  ],
  "bytecode": "0x608060405234801561001057600080fd5b50611514806100206000396000f3fe608060405234801561001057600080fd5b506004361061009e5760003560e01c80637acc0b20116100665780637acc0b20146102b15780638392fe31146103a05780638e96d94e1461041c578063a87430ba1461046d578063c670dbf4146104d35761009e565b8063022ec688146100a3578063131e407d146100db57806316dc15fe1461010957806341ec77d4146101945780634be35ccb146101e2575b600080fd5b6100d9600480360360408110156100b957600080fd5b810190808035906020019092919080359060200190929190505050610535565b005b610107600480360360208110156100f157600080fd5b81019080803590602001909291905050506106d0565b005b61014b6004803603602081101561011f57600080fd5b81019080803573ffffffffffffffffffffffffffffffffffffffff169060200190929190505050610996565b604051808373ffffffffffffffffffffffffffffffffffffffff1673ffffffffffffffffffffffffffffffffffffffff1681526020018281526020019250505060405180910390f35b6101e0600480360360408110156101aa57600080fd5b81019080803573ffffffffffffffffffffffffffffffffffffffff169060200190929190803590602001909291905050506109da565b005b6102af600480360360608110156101f857600080fd5b81019080803590602001909291908035906020019064010000000081111561021f57600080fd5b82018360208201111561023157600080fd5b8035906020019184600183028401116401000000008311171561025357600080fd5b91908080601f016020809104026020016040519081016040528093929190818152602001838380828437600081840152601f19601f82011690508083019250505050505050919291929080359060200190929190505050610be2565b005b6102dd600480360360208110156102c757600080fd5b8101908080359060200190929190505050610ee2565b60405180868152602001806020018573ffffffffffffffffffffffffffffffffffffffff1673ffffffffffffffffffffffffffffffffffffffff168152602001848152602001838152602001828103825286818151815260200191508051906020019080838360005b83811015610361578082015181840152602081019050610346565b50505050905090810190601f16801561038e5780820380516001836020036101000a031916815260200191505b50965050505050505060405180910390f35b6103cc600480360360208110156103b657600080fd5b8101908080359060200190929190505050610fd0565b604051808473ffffffffffffffffffffffffffffffffffffffff1673ffffffffffffffffffffffffffffffffffffffff168152602001838152602001828152602001935050505060405180910390f35b61046b6004803603604081101561043257600080fd5b81019080803573ffffffffffffffffffffffffffffffffffffffff169060200190929190803560ff16906020019092919050505061101a565b005b6104af6004803603602081101561048357600080fd5b81019080803573ffffffffffffffffffffffffffffffffffffffff16906020019092919050505061107d565b604051808260048111156104bf57fe5b60ff16815260200191505060405180910390f35b610533600480360360808110156104e957600080fd5b8101908080359060200190929190803573ffffffffffffffffffffffffffffffffffffffff169060200190929190803590602001909291908035906020019092919050505061109d565b005b6000600260008481526020019081526020016000206000015414156105c2576040517f08c379a000000000000000000000000000000000000000000000000000000000815260040180806020018281038252601a8152602001807f5468652070726f6475637420646f65736e27742065786973742100000000000081525060200191505060405180910390fd5b3373ffffffffffffffffffffffffffffffffffffffff166002600084815260200190815260200160002060020160009054906101000a900473ffffffffffffffffffffffffffffffffffffffff1673ffffffffffffffffffffffffffffffffffffffff1614610699576040517f08c379a00000000000000000000000000000000000000000000000000000000081526004018080602001828103825260178152602001807f596f7520617265206e6f74206120737570706c6965722100000000000000000081525060200191505060405180910390fd5b8060026000848152602001908152602001600020600401540160026000848152602001908152602001600020600401819055505050565b600073ffffffffffffffffffffffffffffffffffffffff166003600083815260200190815260200160002060000160009054906101000a900473ffffffffffffffffffffffffffffffffffffffff1673ffffffffffffffffffffffffffffffffffffffff1614156107a9576040517f08c379a000000000000000000000000000000000000000000000000000000000815260040180806020018281038252601a8152602001807f54686520707572636861736520646f65736e277420657869737400000000000081525060200191505060405180910390fd5b3373ffffffffffffffffffffffffffffffffffffffff166003600083815260200190815260200160002060000160009054906101000a900473ffffffffffffffffffffffffffffffffffffffff1673ffffffffffffffffffffffffffffffffffffffff1614610863576040517f08c379a00000000000000000000000000000000000000000000000000000000081526004018080602001828103825260218152602001806113e36021913960400191505060405180910390fd5b806003600083815260200190815260200160002060010154146108d1576040517f08c379a00000000000000000000000000000000000000000000000000000000081526004018080602001828103825260218152602001806114046021913960400191505060405180910390fd5b60036000828152602001908152602001600020600201546002600060036000858152602001908152602001600020600101548152602001908152602001600020600401540160026000600360008581526020019081526020016000206001015481526020019081526020016000206004018190555060036000828152602001908152602001600020600080820160006101000a81549073ffffffffffffffffffffffffffffffffffffffff021916905560018201600090556002820160009055505050565b60016020528060005260406000206000915090508060000160009054906101000a900473ffffffffffffffffffffffffffffffffffffffff16908060010154905082565b600160003373ffffffffffffffffffffffffffffffffffffffff1673ffffffffffffffffffffffffffffffffffffffff16815260200190815260200160002060000160009054906101000a900473ffffffffffffffffffffffffffffffffffffffff1673ffffffffffffffffffffffffffffffffffffffff168273ffffffffffffffffffffffffffffffffffffffff161415610ac1576040517f08c379a000000000000000000000000000000000000000000000000000000000815260040180806020018281038252602c815260200180611425602c913960400191505060405180910390fd5b610ac9611282565b60405180606001604052808473ffffffffffffffffffffffffffffffffffffffff1681526020018381526020016000604051908082528060200260200182016040528015610b265781602001602082028038833980820191505090505b50815250905080600160008573ffffffffffffffffffffffffffffffffffffffff1673ffffffffffffffffffffffffffffffffffffffff16815260200190815260200160002060008201518160000160006101000a81548173ffffffffffffffffffffffffffffffffffffffff021916908373ffffffffffffffffffffffffffffffffffffffff160217905550602082015181600101556040820151816002019080519060200190610bd99291906112b9565b50905050505050565b6000825111610c3c576040517f08c379a00000000000000000000000000000000000000000000000000000000081526004018080602001828103825260218152602001806114996021913960400191505060405180910390fd5b60008111610c95576040517f08c379a00000000000000000000000000000000000000000000000000000000081526004018080602001828103825260228152602001806114776022913960400191505060405180910390fd5b8260026000858152602001908152602001600020600001541415610d04576040517f08c379a00000000000000000000000000000000000000000000000000000000081526004018080602001828103825260268152602001806114ba6026913960400191505060405180910390fd5b600160003373ffffffffffffffffffffffffffffffffffffffff1673ffffffffffffffffffffffffffffffffffffffff16815260200190815260200160002060000160009054906101000a900473ffffffffffffffffffffffffffffffffffffffff1673ffffffffffffffffffffffffffffffffffffffff163373ffffffffffffffffffffffffffffffffffffffff1614610e07576040517f08c379a00000000000000000000000000000000000000000000000000000000081526004018080602001828103825260178152602001807f596f7520617265206e6f74206120737570706c6965722100000000000000000081525060200191505060405180910390fd5b6040518060a001604052808481526020018381526020013373ffffffffffffffffffffffffffffffffffffffff168152602001828152602001600081525060026000858152602001908152602001600020600082015181600001556020820151816001019080519060200190610e7e929190611306565b5060408201518160020160006101000a81548173ffffffffffffffffffffffffffffffffffffffff021916908373ffffffffffffffffffffffffffffffffffffffff1602179055506060820151816003015560808201518160040155905050505050565b6002602052806000526040600020600091509050806000015490806001018054600181600116156101000203166002900480601f016020809104026020016040519081016040528092919081815260200182805460018160011615610100020316600290048015610f945780601f10610f6957610100808354040283529160200191610f94565b820191906000526020600020905b815481529060010190602001808311610f7757829003601f168201915b5050505050908060020160009054906101000a900473ffffffffffffffffffffffffffffffffffffffff16908060030154908060040154905085565b60036020528060005260406000206000915090508060000160009054906101000a900473ffffffffffffffffffffffffffffffffffffffff16908060010154908060020154905083565b806000808473ffffffffffffffffffffffffffffffffffffffff1673ffffffffffffffffffffffffffffffffffffffff16815260200190815260200160002060006101000a81548160ff0219169083600481111561107457fe5b02179055505050565b60006020528060005260406000206000915054906101000a900460ff1681565b60006002600084815260200190815260200160002060000154141561110d576040517f08c379a00000000000000000000000000000000000000000000000000000000081526004018080602001828103825260268152602001806114516026913960400191505060405180910390fd5b6000816002600085815260200190815260200160002060040154031161119b576040517f08c379a000000000000000000000000000000000000000000000000000000000815260040180806020018281038252601a8152602001807f5468652070726f64756374206973206e6f7420656e6f7567682100000000000081525060200191505060405180910390fd5b6111a3611386565b60405180606001604052808573ffffffffffffffffffffffffffffffffffffffff168152602001848152602001838152509050806003600087815260200190815260200160002060008201518160000160006101000a81548173ffffffffffffffffffffffffffffffffffffffff021916908373ffffffffffffffffffffffffffffffffffffffff16021790555060208201518160010155604082015181600201559050508160026000858152602001908152602001600020600401540360026000858152602001908152602001600020600401819055505050505050565b6040518060600160405280600073ffffffffffffffffffffffffffffffffffffffff16815260200160008152602001606081525090565b8280548282559060005260206000209081019282156112f5579160200282015b828111156112f45782518255916020019190600101906112d9565b5b50905061130291906113bd565b5090565b828054600181600116156101000203166002900490600052602060002090601f016020900481019282601f1061134757805160ff1916838001178555611375565b82800160010185558215611375579182015b82811115611374578251825591602001919060010190611359565b5b50905061138291906113bd565b5090565b6040518060600160405280600073ffffffffffffffffffffffffffffffffffffffff16815260200160008152602001600081525090565b6113df91905b808211156113db5760008160009055506001016113c3565b5090565b9056fe54686520707572636861736520776173206e6f74206d61646520627920796f7521596f752068617665206e6f7420626f7567687420746869732070726f64756374214120737570706c69657220776974682074686973206164647265737320616c726561647920657869737473215468657265206973206e6f20737563682070726f6475637420696e207468652073746f7265215468652070726963652077617320656e746572656420696e636f72726563746c7921546865206e616d652077617320656e746572656420696e636f72726563746c7921412070726f647563742077697468207468697320494420616c72656164792065786973747321a265627a7a7231582039f355c51d1d29788447708a6c7e05962f7fd566dd4fe13afb38c757ec052e9d64736f6c63430005100032",
  "source": "// SPDX-License-Identifier: MIT\r\npragma solidity >=0.4.22 <0.9.0;\r\n\r\ncontract CStore {\r\n    enum Roles {\r\n        Admin,\r\n        Supplier,\r\n        Buyer,\r\n        Seller,\r\n        Store\r\n    }\r\n\r\n    struct Product {\r\n        uint id;\r\n        string name;\r\n        address supplier;\r\n        uint price;\r\n        uint numberOfProducts;\r\n    }\r\n\r\n    struct Purchase {\r\n        address buyer;\r\n        uint productId;\r\n        uint numberOfProducts;\r\n    }\r\n\r\n    struct Supplier {\r\n        address addr;\r\n        int rating;\r\n        uint[] productIds;\r\n    }\r\n\r\n    mapping (address => Roles) public users;\r\n    mapping (address => Supplier) public suppliers;\r\n    mapping (uint => Product) public products;\r\n    mapping (uint => Purchase) public purchases;\r\n\r\n    // +\r\n    function createProduct(uint _id, string memory _name, uint _price) public {\r\n        require(bytes(_name).length > 0, \"The name was entered incorrectly!\");\r\n        require(_price > 0, \"The price was entered incorrectly!\");\r\n        require(products[_id].id != _id, \"A product with this ID already exists!\");\r\n        require(msg.sender == suppliers[msg.sender].addr, \"You are not a supplier!\");\r\n        products[_id] = Product(_id, _name, msg.sender, _price, 0);\r\n    }\r\n\r\n    // +\r\n    function addSupplier(address _addr, int _rating) public {\r\n        require(_addr != suppliers[msg.sender].addr, \"A supplier with this address already exists!\");\r\n        Supplier memory newSupplier = Supplier(_addr, _rating, new uint[](0));\r\n        suppliers[_addr] = newSupplier;\r\n    }\r\n\r\n    // +\r\n    function shipProduct(uint _productId, uint _numberOfProducts) public {\r\n        require(products[_productId].id != 0, \"The product doesn't exist!\");\r\n        require(products[_productId].supplier == msg.sender, \"You are not a supplier!\");\r\n        products[_productId].numberOfProducts = products[_productId].numberOfProducts + _numberOfProducts;\r\n    }\r\n\r\n    // +\r\n    function sellProduct(uint _purchaseId, address _buyer, uint _productId, uint _numberOfProducts) public {\r\n        require(products[_productId].id != 0, \"There is no such product in the store!\");\r\n        require(products[_productId].numberOfProducts - _numberOfProducts > 0, \"The product is not enough!\");\r\n        Purchase memory newPurchase = Purchase(_buyer, _productId, _numberOfProducts);\r\n        purchases[_purchaseId] = newPurchase;\r\n        products[_productId].numberOfProducts = products[_productId].numberOfProducts - _numberOfProducts;\r\n    }\r\n\r\n    // +\r\n    function returnProduct(uint _purchaseId) public {\r\n        require(purchases[_purchaseId].buyer != address(0), \"The purchase doesn't exist\");\r\n        require(purchases[_purchaseId].buyer == msg.sender, \"The purchase was not made by you!\");\r\n        require(purchases[_purchaseId].productId == _purchaseId, \"You have not bought this product!\");\r\n        products[purchases[_purchaseId].productId].numberOfProducts = products[purchases[_purchaseId].productId].numberOfProducts + purchases[_purchaseId].numberOfProducts;\r\n        delete purchases[_purchaseId];\r\n    }\r\n\r\n    function updateRole(address _addr, Roles _role) public {\r\n        users[_addr] = _role;\r\n    }\r\n}",
  "sourcePath": "E:\\blockchain\\Store\\src\\contracts\\CStore.sol",
  "compiler": {
    "name": "solc",
    "version": "0.5.16+commit.9c3226ce.Emscripten.clang"
  },
  "schemaVersion": "3.4.16",
  "updatedAt": "2024-03-17T06:34:14.830Z",
  "networkType": "ethereum",
  "devdoc": {
    "methods": {}
  },
  "userdoc": {
    "methods": {}
  }
}